:060000000A128A11122809
:10000800FE00030E83120313CC000408CD000A0877
:10001800CE007F08CF000A128A116F2E0A128A11A9
:1000280015280A128A1184270A128A11FC000A125A
:100038008A1185270A128A11FD008313A0308400D3
:10004800C0300A128A117C270A128A1120308400D3
:100058004C300A128A117C270A128A1183010A126B
:100068008A1136280A128A1130250A128A11831237
:1000780003139F149F18412842283E281E08DD00BC
:10008800831603131E0883120313DC0001305D027C
:100098002D3003195C02031C522853285E282A03BA
:1000A8002B04031D582859285E280A128A111A247D
:1000B8000A128A110130831203135D022C300319CE
:1000C8005C0203186828692874282A082B04031D71
:1000D8006E286F2874280A128A11C8250A128A11F4
:1000E80083120313D401D40A01300A128A110F268D
:1000F8000A128A11831203132A082B04031D852868
:1001080086289A2826082704031D8B288C289A28D5
:10011800861F8F2890289A280A128A11C8250A1241
:100128008A110A128A111A240A128A1183120313D5
:1001380026082704031DA128A228B7282A032B0470
:10014800031DA728A828B72828032904031DAD28BC
:10015800AE28B7280A128A111A240A128A118312A1
:100168000313A801A90126032704031DBC28BD28E1
:100178003B282A082B04031DC228C3283B28280330
:100188002904031DC828C9283B280A128A11C82532
:100198000A128A1183120313A801A9013B280A1223
:1001A8008A11122883120313D30008155308D100AB
:1001B80007300310D10CFF3E031DDD28510801391B
:1001C800D200D20CD20C080852067F395206880099
:1001D8005308D10006300310D10CFF3E031DEF2851
:1001E80051080139D200D20ED20DD20D080852069C
:1001F800BF39520688005308D10005300310D10CCE
:10020800FF3E031D022951080139D200D20ED20D3A
:1002180008085206DF39520688005308D100043016
:100228000310D10CFF3E031D142951080139D200D7
:10023800D20E08085206EF39520688000A128A11AF
:1002480063270A128A11831203135308D10003305B
:100258000310D10CFF3E031D2C2951080139D2008F
:10026800D20CD20C080852067F395206880053086F
:10027800D10002300310D10CFF3E031D3E29510866
:100288000139D200D20ED20DD20D08085206BF395C
:10029800520688005308D1000310510C0139D200CE
:1002A800D20ED20D08085206DF39520688005308CC
:1002B8000139D100D10E08085106EF3951068800DE
:1002C8000A128A1163270A128A110800831203137B
:1002D800D30008115308D10007300310D10CFF3E9A
:1002E800031D712951080139D200D20CD20C08081B
:1002F80052067F39520688005308D1000630031091
:10030800D10CFF3E031D832951080139D200D20EBA
:10031800D20DD20D08085206BF395206880053087C
:10032800D10005300310D10CFF3E031D962951085A
:100338000139D200D20ED20D08085206DF39520612
:1003480088005308D10004300310D10CFF3E031D70
:10035800A82951080139D200D20E08085206EF39EF
:10036800520688000A128A1163270A128A11831218
:1003780003135308D10003300310D10CFF3E031DB3
:10038800C02951080139D200D20CD20C08085206F3
:100398007F39520688005308D10002300310D10C6F
:1003A800FF3E031DD22951080139D200D20ED20DC9
:1003B800D20D08085206BF39520688005308D100EA
:1003C8000310510C0139D200D20ED20D0808520682
:1003D800DF395206880053080139D100D10E0808C8
:1003E8005106EF39510688000A128A1163270A124A
:1003F8008A110800F3008312031308157308F1002B
:1004080007300310F10CFF3E031D052A710801395E
:10041800F200F20CF20C080872067F3972068800A6
:100428007308F10006300310F10CFF3E031D172A74
:1004380071080139F200F20EF20DF20D0808720689
:10044800BF39720688007308F10005300310F10CFB
:10045800FF3E031D2A2A71080139F200F20EF20D3F
:1004680008087206DF39720688007308F100043044
:100478000310F10CFF3E031D3C2A71080139F200FC
:10048800F20E08087206EF39720688000A128A11FD
:1004980071270A128A117308F10003300310F10C56
:1004A800FF3E031D522A71080139F200F20CF20CCA
:1004B80083120313080872067F39720688007308CE
:1004C800F10002300310F10CFF3E031D662A71088B
:1004D8000139F200F20EF20DF20D08087206BF396A
:1004E800720688007308F1000310710C0139F200DC
:1004F800F20EF20D08087206DF39720688007308DA
:100508000139F100F10E08087106EF39710688000B
:100518000A128A1171270A128A110800F30083123D
:10052800031308117308F10007300310F10CFF3EA4
:10053800031D992A71080139F200F20CF20C08081F
:1005480072067F39720688007308F10006300310BE
:10055800F10CFF3E031DAB2A71080139F200F20EBF
:10056800F20DF20D08087206BF397206880073088A
:10057800F10005300310F10CFF3E031DBE2A71087F
:100588000139F200F20EF20D08087206DF39720620
:1005980088007308F10004300310F10CFF3E031DBE
:1005A800D02A71080139F200F20E08087206EF39F4
:1005B800720688000A128A1171270A128A117308B2
:1005C800F10003300310F10CFF3E031DE62A710809
:1005D8000139F200F20CF20C8312031308087206B8
:1005E8007F39720688007308F10002300310F10C9D
:1005F800FF3E031DFA2A71080139F200F20EF20DCE
:10060800F20D08087206BF39720688007308F100F7
:100618000310710C0139F200F20EF20D080872068F
:10062800DF397206880073080139F100F10E0808F5
:100638007106EF39710688000A128A1171270A12A9
:100648008A11080003308A000408840A82070034EB
:10065800313432343334413434343534363442343A
:1006680037343834393443342A3430342334443436
:100678003F342034203420342034203420342034B3
:1006880020342034203420342034203420342034C2
:1006980020340034503449344334203449346E34DF
:1006A80069347434693461346C3469347A34653447
:1006B8006434003444346F346F34723420344F342B
:1006C800703465346E3469346E34673400344434BD
:1006D8006F346F347234203443346C346F34733471
:1006E80069346E346734003444346F346F34723490
:1006F80020344F34703465346E34653464340034D7
:1007080044346F346F347234203443346C346F346F
:1007180073346534643400344934523420344334F7
:100728006834653463346B3469346E346734003448
:100738000D340A340034433400344F340034831603
:100748000313081183120313081183160313881166
:1007580083120313881183160313081283120313D9
:100768000812831603138812831203138812831640
:100778000313081383120313081383160313881330
:100788008312031388134E3083120313D600EA3002
:10079800D500D50BCD2BD60BCD2B00008312031320
:1007A80088130813881608160A128A1163270A1272
:1007B8008A11083083120313D600C930D500D50B2F
:1007C800E32BD60BE32B0A128A1163270A128A112C
:1007D800313083120313D500D50BF02B0A128A117E
:1007E80063270A128A1183120313881308138816C1
:1007F80008120A128A1163270A128A1128300A126B
:100808008A116A210A128A117C080A128A116A213D
:100818000A128A117D080A128A116A210A128A119B
:100828000A128A1135270A128A1108000A128A1137
:1008380035270A128A1183120313D401D40A01300E
:100848000A128A110F260A128A1165300A128A11B1
:100858009B260A128A1183120313861F342C352C07
:10086800392C861B382C392C352C0A128A1135273D
:100878000A128A1183120313AA01AB01D401D40A04
:1008880001300A128A110F260A128A1140300A1200
:100898008A119B260A128A118312031306138616DD
:1008A800043083120313D800CF30D7000130D600AC
:1008B800D60B5C2CD70B5C2CD80B5C2C0A128A113B
:1008C80035270A128A1183120313D401D40A01307E
:1008D8000A128A110F260A128A1159300A128A112D
:1008E8009B260A128A118312031306138612A80183
:1008F800A9010800F5000130F1020030031CF203E1
:10090800F202710A031D8C2C720A031D8C2C8D2C8B
:100918009E2CF001F101DA2C0130FF007F08F50769
:100928000130FF007F08F0070130F1020030031C9E
:10093800F203F20275088400831300080319A52C3A
:10094800A62CC82C700884000A128A1126230A12C1
:100958008A11003A0319B12CB22CC82C7108720400
:100968000319B72CB82CC82C700884000A128A11F5
:1009780026230A128A11F3007508840000087306FA
:100988000319C72CC82C902C700884000A128A11ED
:1009980026230A128A11F300750884000008F4005F
:1009A80073087402F000F101031CF10308007630AB
:1009B800F6002E300A128A117F250A128A11003A8F
:1009C8000319E72CE82CF72C013083120313A60037
:1009D8000030A7000130A8000030A9000A128A11CF
:1009E800E3260A128A117430F6002E300A128A1190
:1009F8007F250A128A11003A0319032D042D112D9F
:100A080083120313A601A7010130A8000030A90032
:100A18000A128A11E3260A128A110030831203137C
:100A28002D021E3003192C02031C1B2D1C2D2F2DEB
:100A38000A128A11E3260A128A11F401F40A023012
:100A48000A128A1140260A128A1112300A128A11D1
:100A5800C1260A128A110800831603138617061680
:100A68000613861280309F000130831203139F0003
:100A78000A128A111D270A128A110A128A11A3233F
:100A88000A128A110A128A1135270A128A11831248
:100A98000313D401D40A01300A128A110F260A124C
:100AA8008A11831203139F149F185B2D5C2D582DF8
:100AB8001E08831603131E0823300A128A119B2668
:100AC8000A128A11063083120313DB001330DA008E
:100AD800AD30D900D90B6E2DDA0B6E2DDB0B6E2DD8
:100AE8000A128A1135270A128A110A128A111A243F
:100AF8000A128A110800FB0076080319842D852D37
:100B0800C62D76080A128A1102270A128A1171085C
:100B1800FA007008F900B92D7608F0007A08F2009A
:100B28007908F1007B080A128A117E240A128A11B8
:100B380070087104031DA12DA22DA42D7B08C72DBB
:100B4800760884000A128A1126230A128A11F700ED
:100B5800F8017708F0007808F1007B08013E0A12D6
:100B68008A114C270A128A11FB007B080319BD2D34
:100B7800BE2DC62D7B08840083130008031DC52DD8
:100B8800C62D902D003008000A128A1135270A1246
:100B98008A11013083120313AA000030AB00D4017C
:100BA800D40A01300A128A110F260A128A11333028
:100BB8000A128A119B260A128A1183120313061736
:100BC8008612043083120313D800CF30D7000130C7
:100BD800D600D60BED2DD70BED2DD80BED2D0A1227
:100BE8008A1135270A128A1183120313D401D40AF1
:100BF80001300A128A110F260A128A114D300A1280
:100C08008A119B260A128A11831203130617861665
:100C1800A801A901080083120313D5005503031D79
:100C2800162E172E1B2E7F30FF007F08D4070230A8
:100C38005506031D202E212E252EBF30FF007F08CC
:100C4800D40703305506031D2A2E2B2E2F2E933042
:100C5800FF007F08D40704305506031D342E352EB7
:100C6800392ED330FF007F08D40754080A128A119E
:100C78006A210A128A110800F5007503031D452E22
:100C8800462E4A2E7F30FF007F08F4070230750693
:100C9800031D4F2E502E542EBF30FF007F08F4073F
:100CA80003307506031D592E5A2E5E2E9330FF0011
:100CB8007F08F40704307506031D632E642E682E22
:100CC800D330FF007F08F40774080A128A119222B1
:100CD8000A128A1108008C1E722E732E892E00307B
:100CE8002D021E3003192C0203187B2E7C2E892E10
:100CF8002C082E3E84001A08831380000130AC07AC
:100D08000318AD0A0030AD078C120A128A11DB24D1
:100D18000A128A11831203134F08FF004E088A0033
:100D28004D0884004C0E8300FE0E7E0E09008312CF
:100D38000313D500D401B32E5408550784000A12B2
:100D48008A1126230A128A110A128A11D6200A1237
:100D58008A110130FF007F0883120313D407540857
:100D6800550784000A128A1126230A128A11003AAA
:100D7800031DBF2EC02EA02E0800F400F501D52EAD
:100D88007508740784000A128A1126230A128A1128
:100D98000A128A11FE210A128A110130FF007F0807
:100DA800F5077508740784000A128A1126230A12A7
:100DB8008A11003A031DE12EE22EC42E0800831288
:100DC8000313AC01AD01F001F10170082E3E84005F
:100DD800831380010130F0070318F10A0030F1078E
:100DE8007108803AFF0080307F02031DFD2E1E30FF
:100DF8007002031C002F012FE92E0800F30073086E
:100E0800F2000A2F0130FF007F08F30773088400FF
:100E18000A128A1126230A128A11003A031D152F75
:100E2800162F062F72087302F000F101F01BF10370
:100E3800080083160313071387171815990118124A
:100E48008312031398178316031398161813831223
:100E5800031318161813831603138C160B178B1706
:100E6800080001300A128A116A210A128A11DE303A
:100E780083120313D400402F412FD40B3F2F442F4C
:100E880000007D080A128A116A210A128A110800D4
:100E9800F20072088400831300087006031D552FA2
:100EA800562F582F7208622F720884000130F207FB
:100EB8000008031D602F612F4D2F0030080083129A
:100EC800031388150C3083120313D000D00B6A2F3C
:100ED8000000831203138811080083120313881576
:100EE8000D30F000F00B762F8312031388110800E1
:100EF80064008001840A04060319003404067D2F67
:040F08000C3406346B
:04400E00D223FF3F7B
:00000001FF
