:060000000A128A11122809
:10000800FE00030E83120313C8000408C9000A087F
:10001800CA007F08CB000A128A11772A0A128A11AD
:1000280015280A128A11D3250A128A11FC000A120D
:100038008A11D4250A128A11FD008313A030840086
:10004800C0300A128A11CB250A128A112030840086
:1000580048300A128A11CB250A128A1183010A1222
:100068008A11A82B00308A000408840A8207003409
:100078003134323433344134343435343634423420
:1000880037343834393443342A343034233444341C
:100098003F3444346F346F34723420344F34703406
:1000A80065346E34653464342034423465346634DF
:1000B8006F3472346534003444346F346F347234BE
:1000C800203443346C346F347334653464342034EE
:1000D8004234653466346F347234653400345034D5
:1000E80049344334203449346E34693474346934BF
:1000F80061346C3469347A3465346434003444349B
:100108006F346F34723420344F34703465346E3445
:1001180069346E346734003444346F346F34723465
:10012800203443346C346F34733469346E34673438
:10013800003444346F346F34723420344F347034A4
:1001480065346E3465346434003444346F346F3449
:100158007234203443346C346F347334653464340B
:10016800003443346C346F3473346534203444348D
:100178006F346F34723400344F34703465346E34F5
:10018800203444346F346F347234003443346C3464
:100198006F347334653400344F34703465346E34DE
:1001A80000340D340A34003483120313CF000815C9
:1001B8004F08CD0007300310CD0CFF3E031DDF288C
:1001C8004D080139CE00CE0CCE0C08084E067F39FA
:1001D8004E0688004F08CD0006300310CD0CFF3EB8
:1001E800031DF1284D080139CE00CE0ECE0DCE0DDF
:1001F80008084E06BF394E0688004F08CD00053066
:100208000310CD0CFF3E031D04294D080139CE0013
:10021800CE0ECE0D08084E06DF394E0688004F0870
:10022800CD0004300310CD0CFF3E031D16294D08E8
:100238000139CE00CE0E08084E06EF394E0688006A
:100248000A128A11BD250A128A11831203134F0854
:10025800CD0003300310CD0CFF3E031D2E294D08A1
:100268000139CE00CE0CCE0C08084E067F394E065A
:1002780088004F08CD0002300310CD0CFF3E031D4F
:1002880040294D080139CE00CE0ECE0DCE0D0808FE
:100298004E06BF394E0688004F08CD0003104D0C9E
:1002A8000139CE00CE0ECE0D08084E06DF394E06B7
:1002B80088004F080139CD00CD0E08084D06EF39EA
:1002C8004D0688000A128A11BD250A128A110800F3
:1002D80083120313CF0008114F08CD000730031015
:1002E800CD0CFF3E031D73294D080139CE00CE0CFD
:1002F800CE0C08084E067F394E0688004F08CD0000
:1003080006300310CD0CFF3E031D85294D08013929
:10031800CE00CE0ECE0DCE0D08084E06BF394E06C5
:1003280088004F08CD0005300310CD0CFF3E031D9B
:1003380098294D080139CE00CE0ECE0D08084E067C
:10034800DF394E0688004F08CD0004300310CD0C6D
:10035800FF3E031DAA294D080139CE00CE0E08081C
:100368004E06EF394E0688000A128A11BD250A1278
:100378008A11831203134F08CD0003300310CD0CEC
:10038800FF3E031DC2294D080139CE00CE0CCE0C0C
:1003980008084E067F394E0688004F08CD00023007
:1003A8000310CD0CFF3E031DD4294D080139CE00A2
:1003B800CE0ECE0DCE0D08084E06BF394E0688006B
:1003C8004F08CD0003104D0C0139CE00CE0ECE0DD6
:1003D80008084E06DF394E0688004F080139CD005F
:1003E800CD0E08084D06EF394D0688000A128A110D
:1003F800BD250A128A1108008316031308118312F7
:100408000313081183160313881183120313881129
:100418008316031308128312031308128316031397
:100428008812831203138812831603130813831286
:1004380003130813831603138813831203138813F3
:100448004E3083120313D200EA30D100D10B2A2A8E
:10045800D20B2A2A00008312031388130813881664
:1004680008160A128A11BD250A128A110830831249
:100478000313D200C930D100D10B402AD20B402A35
:100488000A128A11BD250A128A1131308312031308
:10049800D100D10B4D2A0A128A11BD250A128A11E0
:1004A8008312031388130813881608120A128A1174
:1004B800BD250A128A1128300A128A116C210A12E3
:1004C8008A117C080A128A116C210A128A117D0885
:1004D8000A128A116C210A128A110A128A118F25AE
:1004E8000A128A1108008C1E7A2A7B2A912A003067
:1004F80029021E30031928020318832A842A912A04
:1005080028082A3E84001A08831380000130A807AF
:100518000318A90A0030A9078C129530F6002A3072
:100528000A128A1165240A128A11003A03199D2AAF
:100538009E2AAD2A013083120313A6000030A700BB
:100548000130A4000030A5000A128A113D250A12C4
:100558008A118F30F6002A300A128A1165240A128D
:100568008A11003A0319B92ABA2AC72A831203132F
:10057800A601A7010130A4000030A5000A128A11C3
:100588003D250A128A1100308312031329021E30F6
:1005980003192802031CD12AD22AD72A0A128A113F
:1005A8003D250A128A11831203134B08FF004A08DB
:1005B8008A0049088400480E8300FE0E7E0E09005A
:1005C80083120313260327040319EB2AEC2A312B81
:1005D8000A128A118F250A128A1101308312031315
:1005E800A6000030A700D001D00A01300A128A11F3
:1005F800E6240A128A1148300A128A1117250A12AB
:100608008A11831203130617861208308312031304
:10061800D4009D30D3000530D200D20B112BD30B60
:10062800112BD40B112B0A128A118F250A128A1149
:1006380083120313D001D00A01300A128A11E6246A
:100648000A128A1162300A128A1117250A128A11AF
:100658008312031306178616462B0A128A118F2552
:100668000A128A1183120313D001D00A01300A1228
:100678008A11E6240A128A1112300A128A111725E1
:100688000A128A1108008312031326082704031983
:100698004E2B4F2B922B0A128A118F250A128A1180
:1006A80083120313A601A701D001D00A01300A1250
:1006B8008A11E6240A128A1155300A128A1117255E
:1006C8000A128A118312031306138616083083123E
:1006D8000313D4009D30D3000530D200D20B722B07
:1006E800D30B722BD40B722B0A128A118F250A1284
:1006F8008A1183120313D001D00A01300A128A1119
:10070800E6240A128A116E300A128A1117250A1273
:100718008A118312031306138612A72B0A128A1151
:100728008F250A128A1183120313D001D00A0130CF
:100738000A128A11E6240A128A1125300A128A112D
:1007480017250A128A1108000A128A11AE240A1201
:100758008A110A128A118F250A128A110A128A111D
:100768008F250A128A1183120313D001D00A02308E
:100778000A128A11E6240A128A1185300A128A118D
:1007880017250A128A110A128A11E4220A128A11FA
:100798001A3083120313D8005E30D7006D30D600AC
:1007A800D60BD42BD70BD42BD80BD42BDB2B0A127C
:1007B8008A118F250A128A1183120313D001D00AD5
:1007C80002300A128A11E6240A128A117A300A12B1
:1007D8008A1117250A128A110A128A1147230A1246
:1007E8008A111A3083120313D8005E30D7006D3097
:1007F800D600D60BFD2BD70BFD2BD80BFD2B042CCD
:10080800B22B0A128A111228F5000130F1020030C9
:10081800031CF203F202710A031D162C720A031D4F
:10082800162C172C282CF001F101642C0130FF0044
:100838007F08F5070130FF007F08F0070130F1025B
:100848000030031CF203F2027508840083130008C9
:1008580003192F2C302C522C700884000A128A118C
:1008680036200A128A11003A03193B2C3C2C522CD0
:10087800710872040319412C422C522C7008840010
:100888000A128A1136200A128A11F30075088400A8
:10089800000873060319512C522C1A2C7008840076
:1008A8000A128A1136200A128A11F3007508840088
:1008B8000008F40073087402F000F101031CF1034E
:1008C8000800FB00760803196A2C6B2CAC2C760800
:1008D8000A128A115C250A128A117108FA00700836
:1008E800F9009F2C7608F0007A08F2007908F100E8
:1008F8007B080A128A1108240A128A1170087104E6
:10090800031D872C882C8A2C7B08AD2C7608840044
:100918000A128A1136200A128A11F700F80177089C
:10092800F0007808F1007B08013E0A128A11A6251A
:100938000A128A11FB007B080319A32CA42CAC2CE7
:100948007B08840083130008031DAB2CAC2C762C89
:1009580000300800831603138617061386120A123E
:100968008A1177250A128A110A128A1100220A129C
:100978008A110A128A118F250A128A118312031307
:10098800D001D00A01300A128A11E6240A128A110B
:1009980038300A128A1117250A128A110630831272
:1009A8000313D5001330D400AD30D300D30BDA2CA9
:1009B800D40BDA2CD50BDA2C0A128A118F250A12DD
:1009C8008A11080083120313D1005103031DED2C73
:1009D800EE2CF22C7F30FF007F08D0070230510642
:1009E800031DF72CF82CFC2CBF30FF007F08D00724
:1009F80003305106031D012D022D062D9330FF00F3
:100A08007F08D00704305106031D0B2D0C2D102D27
:100A1800D330FF007F08D00750080A128A116C21D2
:100A28000A128A11080083120313D100D0012F2D56
:100A38005008510784000A128A1136200A128A11B6
:100A48000A128A11D8200A128A110130FF007F0881
:100A580083120313D0075008510784000A128A1121
:100A680036200A128A11003A031D3B2D3C2D1C2DFD
:100A7800080083120313A801A901F001F10170080D
:100A88002A3E8400831380010130F0070318F10A1D
:100A98000030F1077108803AFF0080307F02031DA3
:100AA800572D1E307002031C5A2D5B2D432D080054
:100AB800F3007308F200642D0130FF007F08F3078C
:100AC800730884000A128A1136200A128A11003A21
:100AD800031D6F2D702D602D72087302F000F10157
:100AE800F01BF10308008316031307138717181563
:100AF8009901181283120313981783160313981673
:100B080018138312031318161813831603138C165D
:100B18000B178B17080001300A128A116C210A1270
:100B28008A11DE3083120313D0009A2D9B2DD00B2F
:100B3800992D9E2D00007D080A128A116C210A1237
:100B48008A110800F20072088400831300087006F6
:100B5800031DAF2DB02DB22D7208BC2D7208840074
:100B68000130F2070008031DBA2DBB2DA72D003058
:100B780008008312031388150C3083120313CC006A
:100B8800CC0BC42D000083120313881108006400E5
:100B98008001840A0406031900340406CC2D0C34A1
:020BA800063411
:04400E00D223FF3F7B
:00000001FF
