:060000000A128A1110280B
:10000800FE00030EF2000408F3000A08F4007F085B
:10001800F5000A128A11712D0A128A111328831702
:10002800CE30FD000630FE004530FF00B0308400C1
:100038000A128A1100270A128A118313DC30FD0084
:100048000630FE002730FF00BE3084000A128A11F5
:1000580000270A128A114D30FD000730FE000F30CC
:10006800FF003D3084000A128A1100270A128A1103
:100078000A128A1149270A128A11F6000A128A11ED
:100088004A270A128A11F7000A128A114B270A1204
:100098008A11F800831790308400B0300A128A1150
:1000A80041270A128A118313A0308400BE300A1235
:1000B8008A1141270A128A11CD01CE01CF01D00140
:1000C800D101D201F901FA0183010A128A116C28BF
:1000D800F0308316031386008312031386010A1275
:1000E8008A114A240A128A110A128A11E5260A126A
:1000F8008A1183120313A401A40A01300A128A1177
:10010800A8250A128A1164300A128A1101260A12D5
:100118008A11063083120313BA001330B900AD30C8
:10012800B800B80B9528B90B9528BA0B95288312F7
:100138000313A401A40A01300A128A11A8250A127D
:100148008A114B300A128A1101260A128A110630C6
:1001580083120313BA001330B900AD30B800B80BDE
:10016800B328B90BB328BA0BB3280A128A11B626DA
:100178000A128A1183120313A401A40A02300A1274
:100188008A11A8250A128A1139300A128A11012601
:100198000A128A11063083120313BA001330B90009
:1001A800AD30B800B80BD628B90BD628BA0BD6286C
:1001B8000A128A11E5260A128A1183120313A4016E
:1001C800A40A01300A128A11A8250A128A11843059
:1001D80083120313A3008030A4000A128A11CE26CA
:1001E8000A128A1179300A128A1101260A128A1112
:1001F80083120313A401A40A02300A128A11A82543
:100208000A128A11123083120313A3008030A4004B
:100218000A128A11CE260A128A1161308312031338
:10022800A600A0300A128A1120250A128A11831208
:100238000313BB003B080319222923291129013084
:10024800D1000030D200A030A3000030A4000A1270
:100258008A11CE260A128A11063083120313BA00B5
:100268001330B900AD30B800B80B3829B90B3829AC
:10027800BA0B38290A128A11E5260A128A11831242
:100288000313A401A40A01300A128A11A8250A122C
:100298008A1158300A128A1101260A128A11831209
:1002A8000313A401A40A02300A128A11A8250A120B
:1002B8008A1126300A128A1101260A128A1106307A
:1002C80083120313BA001330B900AD30B800B80B6D
:1002D8006B29B90B6B29BA0B6B295830831203139E
:1002E800A3008030A4000A128A11CE260A128A11AD
:1002F800A03083120313A3000030A4000A128A114D
:10030800CE260A128A11063083120313BA0013305C
:10031800B900AD30B800B80B8F29B90B8F29BA0BCB
:100328008F290A128A11E5260A128A1183120313E9
:10033800A401A40A01300A128A11A8250A128A11F6
:100348006F300A128A1101260A128A1183120313C6
:10035800A401A40A02300A128A11A8250A128A11D5
:100368000A128A11BE230A128A1183120313BC00CF
:100378003C08B800B9013808A3003908A4000A12DB
:100388008A11CE260A128A11831203133C080A1214
:100398008A1137270A128A11B4290A128A111028D9
:10040000FF1B0A2A83137F1883170008840A031925
:10041000FF0A080002308A000408840A82070034B8
:100420003134323433344134343435343634423474
:1004300037343834393443342A3430342334443470
:100440003F34573461346934743469346E346734FA
:10045000203474346F34203452346534733470343F
:100460006F346E347334653400344534533450344F
:1004700020343834323436343634203443346F3414
:100480006E346E34653463347434653464340034EB
:100490005534413452345434203449346E34693440
:1004A00074342034533475346334633465347334B2
:1004B0007334003449346E34693474344B346534E5
:1004C000793450346134643428342934003452345B
:1004D0006534633465346934763465346434203487
:1004E0004F344B3400344C34433444345F34693437
:1004F0006E346934743428342934003445346E340D
:1005000074346534723420344B34653479340034B7
:10051000413454342034533465346E3474340034EC
:100520000D340A340034413454340034831203133C
:10053000A30008152308A10007300310A10CFF3EFB
:10054000031D9D2A21080139A200A20CA20C080853
:1005500022067F39220688002308A10006300310F6
:10056000A10CFF3E031DAF2A21080139A200A20EF3
:10057000A20DA20D08082206BF3922068800230812
:10058000A10005300310A10CFF3E031DC22A210863
:100590000139A200A20EA20D08082206DF392206A8
:1005A00088002308A10004300310A10CFF3E031DA6
:1005B000D42A21080139A200A20E08082206EF3928
:1005C000220688000A128A111F270A128A11831232
:1005D00003132308A10003300310A10CFF3E031DE9
:1005E000EC2A21080139A200A20CA20C080822065C
:1005F0007F39220688002308A10002300310A10CD5
:10060000FF3E031DFE2A21080139A200A20EA20D01
:10061000A20D08082206BF39220688002308A1007F
:100620000310210C0139A200A20EA20D0808220617
:10063000DF392206880023080139A100A10E08082D
:100640002106EF39210688000A128A111F270A1293
:100650008A11080083120313A30008112308A100C4
:1006600007300310A10CFF3E031D312B2108013977
:10067000A200A20CA20C080822067F3922068800DC
:100680002308A10006300310A10CFF3E031D432BDD
:1006900021080139A200A20EA20DA20D080822060F
:1006A000BF39220688002308A10005300310A10CE1
:1006B000FF3E031D562B21080139A200A20EA20DF8
:1006C00008082206DF39220688002308A10004302A
:1006D0000310A10CFF3E031D682B21080139A20065
:1006E000A20E08082206EF39220688000A128A1193
:1006F0001F270A128A11831203132308A100033053
:100700000310A10CFF3E031D802B21080139A2001C
:10071000A20CA20C080822067F39220688002308B2
:10072000A10002300310A10CFF3E031D922B2108F3
:100730000139A200A20EA20DA20D08082206BF399F
:10074000220688002308A1000310210C0139A20011
:10075000A20EA20D08082206DF392206880023080F
:100760000139A100A10E08082106EF3921068800F1
:100770000A128A111F270A128A11080024308400E5
:100780003D3083120313A0000408A1001030A20022
:100790002008840083130008A300A00A2108840015
:1007A00023088000A10AA20BC82BB401B501FF30B9
:1007B0008312031386000130A0003408043E013E7A
:1007C000E32B0310A00DFF3E031DE12B2008FF3A91
:1007D000FF007F088605B601B701013083120313BD
:1007E000A000360AF52B0310A00DFF3E031DF32BCE
:1007F00020080605031DFD2BFE2B202C0130A00038
:10080000360A042C0310A00DFF3E031D022C200805
:10081000060503190C2C0D2CFE2B3408A000023009
:100820000310A00DFF3E031D102C24302007A10053
:1008300036082107A2002208840083130008492CEF
:100840000130B6070318B70A0030B7073708803AF7
:10085000FF0080307F02031D2F2C04303602031C62
:10086000322C332CED2B013083120313B407031801
:10087000B50A0030B5073508803AFF0080307F02A6
:10088000031D442C04303402031C472C482CD72B66
:100890000030080083160313081183120313081194
:1008A000831603138811831203138811831603130D
:1008B000081283120313081283160313881283127B
:1008C00003138812831603130813831203130813E8
:1008D0008316031388138312031388134E30831275
:1008E0000313A600EA30A500A50B742CA60B742CEC
:1008F00000008312031388130813881608160A12BF
:100900008A111F270A128A11083083120313A600C6
:10091000C930A500A50B8A2CA60B8A2C0A128A11B5
:100920001F270A128A11313083120313A500A50B69
:10093000972C0A128A111F270A128A118312031395
:1009400088130813881608120A128A111F270A1220
:100950008A1128300A128A112A230A128A1177086A
:100960000A128A112A230A128A1178080A128A1195
:100970002A230A128A110A128A11E5260A128A11FA
:10098000080083120313A5000130A1020030031CEC
:10099000A203A202210A031DD12C220A031DD12C7D
:1009A000D22CE32CA001A1011F2D0130FF007F08F4
:1009B000A5070130FF007F08A0070130A102003029
:1009C000031CA203A2022508840083130008031954
:1009D000EA2CEB2C0D2D200884000A128A110A2221
:1009E0000A128A11003A0319F62CF72C0D2D210852
:1009F00022040319FC2CFD2C0D2D200884000A1262
:100A00008A110A220A128A11A3002508840000080C
:100A1000230603190C2D0D2DD52C200884000A1255
:100A20008A110A220A128A11A300250884000008EC
:100A3000A40023082402A000A101031CA1030800B4
:100A400083120313AB0026080319272D282D6F2DC1
:100A500026080A128A1163260A128A1183120313C6
:100A60002108AA002008A900622D2608A0002A0853
:100A7000A2002908A1002B080A128A11C1240A1217
:100A80008A118312031320082104031D482D492DC8
:100A90004B2D2B08702D260884000A128A110A2279
:100AA0000A128A11A700A8012708A0002808A1009F
:100AB0002B08013E0A128A119D260A128A118312FE
:100AC0000313AB002B080319662D672D6F2D2B0820
:100AD000840083130008031D6E2D6F2D352D00300B
:100AE0000800831203138C1E762D772D8D2D003078
:100AF0007A021C300319790203187F2D802D8D2D69
:100B00007908A03E84001A08831380000130F90799
:100B10000318FA0A0030FA078C1200307A021F30EC
:100B200003197902031C952D962D9D2D0A128A1109
:100B300080260A128A11F901FA017508FF0074086B
:100B40008A0073088400720E8300FE0E7E0E090078
:100B500083120313A5002503031DAF2DB02DB42D63
:100B60007F30FF007F08A40702302506031DB92D42
:100B7000BA2DBE2DBF30FF007F08A4070330250625
:100B8000031DC32DC42DC82D9330FF007F08A4077B
:100B900004302506031DCD2DCE2DD22DD330FF00E0
:100BA0007F08A40724080A128A112A230A128A112C
:100BB0000800F02D2208FF00210884000A128A1183
:100BC00000220A128A110A128A112D270A128A118A
:100BD000013083120313A1070318A20A0030A207F1
:100BE000831203132208FF00210884000A128A11CD
:100BF00000220A128A11003A031DFF2D002EDA2D61
:100C0000080083120313A500A401192E2408250748
:100C100084000A128A110A220A128A110A128A11FF
:100C200096220A128A110130FF007F0883120313F3
:100C3000A4072408250784000A128A110A220A122E
:100C40008A11003A031D252E262E062E08005F3439
:100C500000340034003400340034003400340034F4
:100C600000340034003400340034003400340034E4
:100C700000340034003400340034003400340034D4
:100C8000003400340034003400345F340034003465
:100C900000340034003400340034003400340034B4
:100CA00000340034003400340034003400340034A4
:100CB0000034003400340034003400340034003494
:100CC00000340034003483120313A3002308A2006D
:100CD0006D2E0130FF007F08A307230884000A124D
:100CE0008A110A220A128A11003A031D782E792EDF
:100CF000692E22082302A000A101A01BA103080065
:100D0000F901FA01F001F1017008A03E840083139B
:100D100080010130F0070318F10A0030F107710873
:100D2000803AFF0080307F02031D982E1E30700233
:100D3000031C9B2E9C2E842E080083120313A200FA
:100D400022088400831300082006031DA82EA92E64
:100D5000AB2E2208B52E220884000130A20700081D
:100D6000031DB32EB42EA02E0030080083160313EB
:100D70000713871718159901181283120313981770
:100D800083160313981618138312031318161813D7
:100D9000831603138C160B178B170800831203138B
:100DA0002308A1002408A2000A128A11D9250A12D8
:100DB0008A11813083120313A1008030A2000A122D
:100DC0008A11D9250A128A11080001300A128A11E3
:100DD0002A230A128A11DE3083120313A400F02E94
:100DE000F12EA40BEF2EF42E000078080A128A11BF
:100DF0002A230A128A1108007E088A007F088200CE
:100E00000A128A11FC260A128A118000840A040838
:100E10007D0603190034FF0A0319FE0A002F31343E
:100E20003234333441343434353436344234373464
:100E30003834393443342A3430342334443483123C
:100E4000031388150C3083120313A000A00B262F68
:100E50000000831203138811080083120313A000FB
:100E60000C1E332F342F302F2008990008008312D6
:100E70000313A40024080A128A1196220A128A1166
:100E8000080064008001840A040603190034040683
:080E9000422F42340C340634F9
:04400E00D223FF3F7B
:00000001FF
