:060000000A128A1110280B
:10000800FE00030EF2000408F3000A08F4007F085B
:10001800F5000A128A11432E0A128A111328831333
:10002800DC30FD000630FE000730FF00A030840001
:100038000A128A11AB270A128A110A128A11F027AA
:100048000A128A11F6000A128A11F1270A128A1175
:10005800F7000A128A11F2270A128A11F800831788
:1000680090308400B0300A128A11E8270A128A11E7
:1000780083132030840044300A128A11E8270A12B8
:100088008A11F901FA0183010A128A114B280A120E
:100098008A11E0240A128A110A128A117B270A128D
:1000A8008A1183120313C801C80A01300A128A117F
:1000B8007A260A128A1153300A128A11D3260A1292
:1000C8008A11063083120313D2001330D100AD30E9
:1000D800D000D00B6D28D10B6D28D20B6D280A12D9
:1000E8008A11C8270A128A1183120313C801C80A81
:1000F80001300A128A117A260A128A113A300A1233
:100108008A11D3260A128A11063083120313D200E9
:100118001330D100AD30D000D00B9028D10B9028EF
:10012800D20B90280A128A114C270A128A118312BC
:100138000313C801C80A02300A128A117A260A1261
:100148008A1128300A128A11D3260A128A11063017
:1001580083120313D2001330D100AD30D000D00B7E
:10016800B328D10BB328D20BB3280A128A117B27E4
:100178000A128A1183120313C801C80A01300A122D
:100188008A117A260A128A11733083120313C70060
:100198008030C8000A128A1164270A128A1168304E
:1001A8000A128A11D3260A128A1183120313C8016C
:1001B800C80A02300A128A117A260A128A110130F4
:1001C80083120313C7008030C8000A128A116427FB
:1001D8000A128A11503083120313CA0026300A12F9
:1001E8008A11B6250A128A1183120313D300530801
:1001F8000319FF280029EE280130A4000030A500CB
:100208002630C7000030C8000A128A1164270A1273
:100218008A11063083120313D2001330D100AD3097
:10022800D000D00B1529D10B1529D20B15290A128C
:100238008A117B270A128A1183120313C801C80A7C
:1002480001300A128A117A260A128A1147300A12D4
:100258008A11D3260A128A1183120313C801C80A05
:1002680002300A128A117A260A128A1115300A12E5
:100278008A11D3260A128A11063083120313D20078
:100288001330D100AD30D000D00B4829D10B48290C
:10029800D20B4829473083120313C7008030C800A7
:1002A8000A128A1164270A128A112630831203134C
:1002B800C7000030C8000A128A1164270A128A117E
:1002C800063083120313D2001330D100AD30D000B2
:1002D800D00B6C29D10B6C29D20B6C290A128A110C
:1002E8007B270A128A1183120313C801C80A013036
:1002F8000A128A117A260A128A115E300A128A11A3
:10030800D3260A128A1183120313C801C80A0230BD
:100318000A128A117A260A128A115A300A128A1186
:10032800DE270A128A110A128A1192270A128A11E2
:1003380083120313D40054080A128A11DE270A1202
:100348008A114330831203135406031DAC29AD29C7
:100358009129063083120313D2001330D100AD3037
:10036800D000D00BB529D10BB529D20BB5297229EC
:100378000A128A1110288312031306108614061510
:100388008615061AC829C929DB2982308312031366
:10039800C500DD30C400C40BCF29C50BCF2983129B
:1003A8000313061ED829D929D3293130322B861AAE
:1003B800DE29DF29F129823083120313C500DD30DD
:1003C800C400C40BE529C50BE52983120313861E57
:1003D800EE29EF29E9293230322B061BF429F529B9
:1003E800072A823083120313C500DD30C400C40B12
:1003F800FB29C50BFB2983120313061F042A052AB0
:10040800FF293330322B861B0A2A0B2A1D2A8230F9
:1004180083120313C500DD30C400C40B112AC50BB9
:10042800112A83120313861F1A2A1B2A152A413000
:10043800322B0614861006158615061A242A252A34
:10044800372A823083120313C500DD30C400C40B81
:100458002B2AC50B2B2A83120313061E342A352A8E
:100468002F2A3430322B861A3A2A3B2A4D2A8230D8
:1004780083120313C500DD30C400C40B412AC50B29
:10048800412A83120313861E4A2A4B2A452A3530ED
:10049800322B061B502A512A632A823083120313F7
:1004A800C500DD30C400C40B572AC50B572A831278
:1004B8000313061F602A612A5B2A3630322B861BFB
:1004C800662A672A792A823083120313C500DD3031
:1004D800C400C40B6D2AC50B6D2A83120313861F33
:1004E800762A772A712A4230322B0614861406118E
:1004F8008615061A802A812A932A823083120313CA
:10050800C500DD30C400C40B872AC50B872A8312B7
:100518000313061E902A912A8B2A3730322B861A0B
:10052800962A972AA92A823083120313C500DD3040
:10053800C400C40B9D2AC50B9D2A83120313861E73
:10054800A62AA72AA12A3830322B061BAC2AAD2AA4
:10055800BF2A823083120313C500DD30C400C40BE8
:10056800B32AC50BB32A83120313061FBC2ABD2A5C
:10057800B72A3930322B861BC22AC32AD52A8230A1
:1005880083120313C500DD30C400C40BC92AC50B90
:10059800C92A83120313861FD22AD32ACD2A4330AD
:1005A800322B0614861406158611061ADC2ADD2A53
:1005B800EF2A823083120313C500DD30C400C40B58
:1005C800E32AC50BE32A83120313061EEC2AED2A3D
:1005D800E72A2A30322B861AF22AF32A052B823090
:1005E80083120313C500DD30C400C40BF92AC50B00
:1005F800F92A83120313861E022B032BFD2A30309F
:10060800322B061B082B092B1B2B8230831203135A
:10061800C500DD30C400C40B0F2BC50B0F2B831294
:100628000313061F182B192B132B2330322B861B71
:100638001E2B1F2B312B823083120313C500DD3094
:10064800C400C40B252BC50B252B83120313861F4F
:100658002E2B2F2B292B4430322B6E30080083127F
:100668000313C70008154708C50007300310C50C59
:10067800FF3E031D3A2B45080139C600C60CC60CBF
:10068800080846067F39460688004708C500063030
:100698000310C50CFF3E031D4C2B45080139C6004D
:1006A800C60EC60DC60D08084606BF3946068800A0
:1006B8004708C50005300310C50CFF3E031D5F2B1E
:1006C80045080139C600C60EC60D08084606DF39BA
:1006D800460688004708C50004300310C50CFF3ED5
:1006E800031D712B45080139C600C60E08084606C9
:1006F800EF39460688000A128A11BA270A128A11A7
:10070800831203134708C50003300310C50CFF3ECE
:10071800031D892B45080139C600C60CC60C0808FC
:1007280046067F39460688004708C5000230031090
:10073800C50CFF3E031D9B2B45080139C600C60E9C
:10074800C60DC60D08084606BF3946068800470884
:10075800C5000310450C0139C600C60EC60D0808B1
:100768004606DF394606880047080139C500C50E28
:1007780008084506EF39450688000A128A11BA2783
:100788000A128A11080083120313C70008114708C8
:10079800C50007300310C50CFF3E031DCE2B4508CE
:1007A8000139C600C60CC60C080846067F3946063D
:1007B80088004708C50006300310C50CFF3E031D1E
:1007C800E02B45080139C600C60EC60DC60D08083F
:1007D8004606BF39460688004708C500053003109D
:1007E800C50CFF3E031DF32B45080139C600C60E94
:1007F800C60D08084606DF39460688004708C500C2
:1008080004300310C50CFF3E031D052C45080139B3
:10081800C600C60E08084606EF39460688000A12C2
:100828008A11BA270A128A11831203134708C500CE
:1008380003300310C50CFF3E031D1D2C450801396C
:10084800C600C60CC60C080846067F39460688004E
:100858004708C50002300310C50CFF3E031D2F2CAE
:1008680045080139C600C60EC60DC60D080846065D
:10087800BF39460688004708C5000310450C0139F2
:10088800C600C60EC60D08084606DF3946068800AB
:1008980047080139C500C50E08084506EF39450661
:1008A80088000A128A11BA270A128A110800FF1B47
:1008B800652C83137F1883170008840A0319FF0A1D
:1008C800080004308A000408840A82070034573478
:1008D80061346934743469346E3467342034743460
:1008E8006F34203452346534733470346F346E345A
:1008F8007334653400344534533450342034383438
:10090800323436343634203443346F346E346E34F3
:100918006534633474346534643400345534413494
:1009280052345434203449346E34693474342034A5
:100938005334753463346334653473347334003436
:1009480049346E34693474344B34653479345034F2
:1009580061346434283429340034523465346334BF
:100968006534693476346534643420344F344B3418
:1009780000344C34433444345F3469346E3469345D
:10098800743428342934003445346E34743465346E
:10099800723420344B34653479340034413454345F
:1009A8002034533465346E34743400340D340A34CE
:1009B800003441345434003483160313081183126D
:1009C8000313081183160313881183120313881164
:1009D80083160313081283120313081283160313D2
:1009E80088128312031388128316031308138312C1
:1009F800031308138316031388138312031388132E
:100A08004E3083120313CA00EA30C900C90B0A2DFD
:100A1800CA0B0A2D000083120313881308138816C3
:100A280008160A128A11BA270A128A110830831284
:100A38000313CA00C930C900C90B202DCA0B202DC9
:100A48000A128A11BA270A128A1131308312031343
:100A5800C900C90B2D2D0A128A11BA270A128A1148
:100A68008312031388130813881608120A128A11AE
:100A7800BA270A128A1128300A128A11C7230A12C1
:100A88008A1177080A128A11C7230A128A1178086C
:100A98000A128A11C7230A128A110A128A117B279D
:100AA8000A128A11080083120313C9000130C50213
:100AB8000030031CC603C602450A031D672D460AFB
:100AC800031D672D682D792DC401C501B52D013091
:100AD800FF007F08C9070130FF007F08C407013005
:100AE800C5020030031CC603C602490884008313EC
:100AF80000080319802D812DA32D440884000A12B3
:100B08008A1165240A128A11003A03198C2D8D2D39
:100B1800A32D450846040319922D932DA32D4408AF
:100B280084000A128A1165240A128A11C70049082A
:100B38008400000847060319A22DA32D6B2D440835
:100B480084000A128A1165240A128A11C70049080A
:100B580084000008C80047084802C400C501031CF7
:100B6800C503080083120313CF004A080319BD2DDB
:100B7800BE2D052E4A080A128A11F9260A128A1170
:100B8800831203134508CE004408CD00F82D4A0807
:100B9800C4004E08C6004D08C5004F080A128A1145
:100BA80057250A128A118312031344084504031DAA
:100BB800DE2DDF2DE12D4F08062E4A0884000A128B
:100BC8008A1165240A128A11CB00CC014B08C40093
:100BD8004C08C5004F08013E0A128A1133270A1231
:100BE8008A1183120313CF004F080319FC2DFD2D22
:100BF800052E4F08840083130008031D042E052EBC
:100C0800CB2D003008005F34003400340034003449
:100C1800003400340034003400340034003400342C
:100C2800003400340034003400340034003400341C
:100C3800003400340034003400340034003400340C
:100C480000345F340034003400340034003400349D
:100C580000340034003400340034003400340034EC
:100C680000340034003400340034003400340034DC
:100C7800003400340034003400340034003483126B
:100C880003138C1E482E492E5F2E00307A021C302A
:100C9800031979020318512E522E5F2E7908263E29
:100CA80084001A08831380000130F9070318FA0A30
:100CB8000030FA078C1200307A021F3003197902CB
:100CC800031C672E682E6F2E0A128A1116270A1225
:100CD8008A11F901FA017508FF0074088A0073087F
:100CE8008400720E8300FE0E7E0E09008312031329
:100CF800C9004903031D812E822E862E7F30FF00F6
:100D08007F08C80702304906031D8B2E8C2E902EB3
:100D1800BF30FF007F08C80703304906031D952E22
:100D2800962E9A2E9330FF007F08C8070430490694
:100D3800031D9F2EA02EA42ED330FF007F08C807C6
:100D480048080A128A11C7230A128A110800C22EFB
:100D58004608FF00450884000A128A115B240A121B
:100D68008A110A128A11D4270A128A1101308312B1
:100D78000313C5070318C60A0030C60783120313F6
:100D88004608FF00450884000A128A115B240A12EB
:100D98008A11003A031DD12ED22EAC2E08008312E0
:100DA8000313C900C801EB2E4808490784000A123A
:100DB8008A1165240A128A110A128A1133230A1227
:100DC8008A110130FF007F0883120313C8074808FF
:100DD800490784000A128A1165240A128A11003A06
:100DE800031DF72EF82ED82E080083120313C70010
:100DF8004708C600032F0130FF007F08C7074708D0
:100E080084000A128A1165240A128A11003A031D05
:100E18000E2F0F2FFF2E46084702C400C501C41B22
:100E2800C5030800F901FA01F001F1017008263E36
:100E38008400831380010130F0070318F10A0030A1
:100E4800F1077108803AFF0080307F02031D2E2FC2
:100E58001E307002031C312F322F1A2F0800831204
:100E68000313C60046088400831300084406031DC4
:100E78003E2F3F2F412F46084B2F46088400013054
:100E8800C6070008031D492F4A2F362F00300800D7
:100E9800831603130713871718159901181283125D
:100EA8000313981783160313981618138312031342
:100EB80018161813831603138C160B178B170800B4
:100EC800831203134708C5004808C6000A128A118E
:100ED800AB260A128A11703083120313C5008030C2
:100EE800C6000A128A11AB260A128A1108000130BC
:100EF8000A128A11C7230A128A11DE3083120313D9
:100F0800C800862F872FC80B852F8A2F00007808E6
:100F18000A128A11C7230A128A1108006E30831236
:100F28000313C6009F2F0A128A11BF210A128A11C1
:100F380083120313C6006E3046060319A42FA52F8B
:100F4800972F460808007E088A007F0882000A1248
:100F58008A11A7270A128A118000840A04087D06CC
:100F680003190034FF0A0319FE0AAB2F8312031377
:100F780088150C3083120313C400C40BC12F000062
:100F88008312031388110800831203138601F030BB
:100F98008316031386007F30FF007F088105080051
:100FA80083120313C4000C1EDA2FDB2FD72F44083B
:100FB8009900080083120313C80048080A128A110E
:100FC80033230A128A11080064008001840A040687
:0E0FD800031900340406E92F42340C340634A9
:04400E00D223FF3F7B
:00000001FF
