:060000000A128A110E280D
:10000800FE00030EF0000408F1000A08F2000A12CC
:100018008A15432F0A128A1111288313DC30FD0038
:100028000F30FE00C430FF00A03084000A128A1589
:10003800D0260A128A110A128A159E260A128A11D5
:10004800F8000A128A159F260A128A11F9000A1264
:100058008A15A0260A128A11FA00831790308400A4
:10006800B0300A128A15A1260A128A118313203089
:10007800840046300A128A15A1260A128A118301C1
:100088000A128A1147280A128A110D270A128A11A0
:100098000A128A15DF260A128A11F701F70A0130B7
:1000A8000A128A1593270A128A11943083120313AD
:1000B800C6008030C7000A128A1568270A128A11FA
:1000C800063083120313E1001330E000AD30DF0087
:1000D800DF0B6C28E00B6C28E10B6C28F701F70AA2
:1000E80001300A128A1593270A128A114B3083129B
:1000F8000313C6008030C7000A128A1568270A123F
:100108008A11063083120313E1001330E000AD308A
:10011800DF00DF0B8D28E00B8D28E10B8D280A12FC
:100128008A150C270A128A11F701F70A02300A12F7
:100138008A1593270A128A11393083120313C600CD
:100148008030C7000A128A1568270A128A110630F9
:1001580083120313E1001330E000AD30DF00DF0B42
:10016800B328E00BB328E10BB3280A128A15DF265F
:100178000A128A11F701F70A01300A128A15932721
:100188000A128A11AF300A128A15BE260A128A117B
:100198009F3083120313C6008030C7000A128A15E5
:1001A80068270A128A11F701F70A02300A128A151B
:1001B80093270A128A1112300A128A15BE260A12C9
:1001C8008A11063083120313E1001330E000AD30CA
:1001D800DF00DF0BED28E00BED28E10BED280A121C
:1001E8008A15DF260A128A11F701F70A01300A1266
:1001F8008A1593270A128A11583083120313C600EE
:100208008030C7000A128A1568270A128A11F70176
:10021800F70A02300A128A1593270A128A11263021
:1002280083120313C6008030C7000A128A15682794
:100238000A128A11063083120313E1001330E0001A
:10024800AD30DF00DF0B2629E00B2629E10B26293C
:100258000A128A15DF260A128A11831603138601E9
:100268008312031386018613061380308316031343
:100278009F000130831203139F0083160313051494
:10028800831203139F149F184A294B2947291E08D4
:10029800E300831603131E0883120313E200F70119
:1002A800F70A02300A128A1593270A128A1128308F
:1002B80083120313C6000030C7000A128A15682784
:1002C8000A128A110D30F70001300A128A15932795
:1002D8000A128A11831203136208D4006308D50036
:1002E800D601D7010430D8000A128A116C220A12EA
:1002F8008A11F701F70A01300A128A1593270A12A0
:100308008A11A73083120313C70028300A128A11F2
:1003180044230A128A11003A031993299429452A79
:100328007C3083120313C6008030C7000A128A1576
:1003380068270A128A1183120313061706308312DC
:100348000313E1001330E000AD30DF00DF0BAA2912
:10035800E00BAA29E10BAA29831203138617012AA5
:100368009F149F18B829B929B529F701F70A013050
:100378000A128A1593270A128A11831203131E0878
:10038800E300831603131E0883120313E200F70128
:10039800F70A01300A128A1593270A128A11703057
:1003A80083120313C6008030C7000A128A15682713
:1003B8000A128A110D30F70001300A128A159327A4
:1003C8000A128A11831203136208D4006308D50045
:1003D800D601D7010430D8000A128A116C220A12F9
:1003E8008A110130831203136302F4300319620285
:1003F8000318FF29002A012A0A2A01306302F5306E
:10040800031962020318092A0A2AB429F701F70A0C
:1004180001300A128A1593270A128A11643083124E
:100428000313C6008030C7000A128A1568270A120B
:100438008A11033083120313E1008A30E00055303B
:10044800DF00DF0B252AE00B252AE10B252A831282
:1004580003130613063083120313E1001330E00080
:10046800AD30DF00DF0B362AE00B362AE10B362AE7
:100478008312031386130A128A1524270A128A1173
:10048800552A883083120313C6008030C7000A1229
:100498008A1568270A128A110A128A1524270A124D
:1004A8008A11063083120313E1001330E000AD30E7
:1004B800DF00DF0B5D2AE00B5D2AE10B5D2A0A12E3
:1004C8008A15DF260A128A1144290A128A110E286F
:1004D80083120313DA01D71F722A732A922AFF3074
:1004E800C900FF30C800FF30C700FF30C6005708FA
:1004F800CD005608CC005508CB005408CA000A1293
:100508008A1197230A128A11831203134908D70004
:100518004808D6004708D5004608D4005708DE002A
:100528005608DD005508DC005408DB000130FF00E8
:100538007F08DA07DE1BB12A5E08031DB02A5D08B2
:10054800031DB02A5C08031DB02A0A305B02031D94
:10055800AD2A0318B02AB12AB22AD42A003083124D
:100568000313C9000030C8000030C7000A30C600B5
:100578005E08CD005D08CC005C08CB005B08CA00B3
:100588000A128A11C1240A128A1183120313490814
:10059800DE004808DD004708DC004608DB009A2A30
:1005A8008312031358085A02031CDB2ADC2ADD2AAB
:1005B800E82A20300A128A115E250A128A110130AF
:1005C80083120313D802D42A5708DE005608DD0028
:1005D8005508DC005408DB00D901D90A162B003075
:1005E800C9000030C8000030C7000A30C6005E08E5
:1005F800CD005D08CC005C08CB005B08CA000A127D
:100608008A11C1240A128A11831203134908DE00D1
:100618004808DD004708DC004608DB000130FF0021
:100628007F08D9075A085902031C1B2B1C2BF32AD5
:100638000030C9000030C8000030C7000A30C600CA
:100648005E08CD005D08CC005C08CB005B08CA00E2
:100658000A128A1186260A128A118312031346087F
:10066800303E0A128A115E250A128A11013083125D
:100678000313DA025A08031D422B432BE82A080009
:1006880083120313CC00470803194B2B4C2B952BD3
:1006980047080A128A11E3270A128A11740883127A
:1006A8000313CB007308CA00882B4708F3004B08D4
:1006B800F5004A08F4004C080A128A1184270A1225
:1006C8008A1173087404031D6A2B6B2B6F2B83121A
:1006D80003134C08962B83120313470884000A124D
:1006E8008A110A240A128A11C800C9014808F300AD
:1006F8004908F4004C08013E0A128A15F5260A1228
:100708008A1183120313CC004C0803198C2B8D2BF0
:10071800952B4C08840083130008031D942B952BFC
:10072800592B003008000030F7000030F600003088
:10073800F5000030F40083120313461CA42BA52BEC
:10074800BC2B4A08F4074B0803110318013E031990
:10075800AE2BF5074C0803110318013E0319B52BFE
:10076800F6074D0803110318013E0319BC2BF707C0
:100778000130F3000310CA0DCB0DCC0DCD0DF30BDA
:10078800BE2B01300310C90CC80CC70CC60CFF3EA9
:10079800031DC62B4908480447044604031DD52BEE
:1007A800D62B9F2B7708C9007608C8007508C700A4
:1007B8007408C6000800F400F12B740884000A12BB
:1007C8008A110A240A128A110A128A15A9260A12FB
:1007D8008A110130FF007F08F407740884000A12A8
:1007E8008A110A240A128A11003A031DFC2BFD2BD8
:0407F800E12B0800E9
:10080000FF1B0A2C83137F1883170008840A03191F
:10081000FF0A080004308A000408840A82070034B2
:100820003134323433344134343435343634423470
:1008300037343834393443342A343034233444346C
:100840003F34573461346934743469346E346734F6
:10085000203474346F34203452346534733470343B
:100860006F346E347334653400344534533450344B
:1008700020343834323436343634203443346F3410
:100880006E346E34653463347434653464340034E7
:100890005534413452345434203449346E3469343C
:1008A00074342034533475346334633465347334AE
:1008B0007334003449346E34693474344B346534E1
:1008C0007934503461346434283429340034523457
:1008D0006534633465346934763465346434203483
:1008E0004F344B34003444346F346E3465346434E4
:1008F0002034493452342034533452340034433495
:100900006834653463346B342034493452342034D1
:1009100053345234003444346F346F3472342034DE
:100920004F34703465346E34653464340034443488
:100930006F346F347234203443346C346F34733416
:100940006534643400344C34433444345F346934A3
:100950006E346934743428342934003441345434C6
:100960002034533465346E34743400344F3470346E
:1009700065346E3400340D340A3400344134543458
:10098000003483120313CF01C91FC72CC82CD52CE8
:10099000C609C709C809C909C60A0319C70A03193C
:1009A000C80A0319C90ACF01CF0ACD1FD82CD92CE8
:1009B000E82CCA09CB09CC09CD09CA0A0319CB0A0C
:1009C0000319CC0A0319CD0A0130FF007F08CF06B6
:1009D0000030D3000030D2000030D1000030D00011
:1009E00049084804470446040319F72CF82C452D00
:1009F000CE01CE0A082D0130F3000310C60DC70D3D
:100A0000C80DC90DF30BFD2C0130FF007F08CE0788
:100A1000C91F0B2D0C2DFB2C0130F3000310D00D42
:100A2000D10DD20DD30DF30B0E2D49084D02031D30
:100A3000232D48084C02031D232D47084B02031D9C
:100A4000232D46084A02031C262D272D362D460845
:100A5000CA024708031C470FCB024808031C480F73
:100A6000CC024908031C490FCD0250140130031079
:100A7000C90CC80CC70CC60CFF3E031D372D013036
:100A8000CE02031D442D452D0C2D4F080319492D71
:100A90004A2D552DD009D109D209D309D00A0319FD
:100AA000D10A0319D20A0319D30A5308C9005208FC
:100AB000C8005108C7005008C6000800F60083129D
:100AC000031308157608F40007300310F40CFF3EFA
:100AD000031D652D74080139F500F50CF50C0808A7
:100AE00075067F39750688007608F4000630031015
:100AF000F40CFF3E031D772D74080139F500F50E47
:100B0000F50DF50D08087506BF39750688007608DD
:100B1000F40005300310F40CFF3E031D8A2D740809
:100B20000139F500F50EF50D08087506DF39750673
:100B300088007608F40004300310F40CFF3E031D17
:100B40009C2D74080139F500F50E08087506EF397B
:100B5000750688000A128A15B3260A128A117608C9
:100B6000F40003300310F40CFF3E031DB22D740893
:100B70000139F500F50CF50C83120313080875060E
:100B80007F39750688007608F40002300310F40CF3
:100B9000FF3E031DC62D74080139F500F50EF50D55
:100BA000F50D08087506BF39750688007608F4004B
:100BB0000310740C0139F500F50EF50D08087506E3
:100BC000DF397506880076080139F400F40E08084C
:100BD0007406EF39740688000A128A15B3260A12C1
:100BE0008A110800F6008312031308117608F40036
:100BF00007300310F40CFF3E031DF92D7408013972
:100C0000F500F50CF50C080875067F3975068800A7
:100C10007608F40006300310F40CFF3E031D0B2E83
:100C200074080139F500F50EF50DF50D0808750687
:100C3000BF39750688007608F40005300310F40CFF
:100C4000FF3E031D1E2E74080139F500F50EF50D4B
:100C500008087506DF39750688007608F400043048
:100C60000310F40CFF3E031D302E74080139F5000B
:100C7000F50E08087506EF39750688000A128A1500
:100C8000B3260A128A117608F40003300310F40C1C
:100C9000FF3E031D462E74080139F500F50CF50CD6
:100CA00083120313080875067F39750688007608D5
:100CB000F40002300310F40CFF3E031D5A2E74089A
:100CC0000139F500F50EF50DF50D08087506BF396B
:100CD000750688007608F4000310740C0139F500DD
:100CE000F50EF50D08087506DF39750688007608DB
:100CF0000139F400F40E08087406EF397406880010
:100D00000A128A15B3260A128A110800F501831205
:100D10000313CD1F8C2E8D2E9A2ECA09CB09CC0918
:100D2000CD09CA0A0319CB0A0319CC0A0319CD0A43
:100D3000F501F50AC91F9D2E9E2EA92EC609C709C9
:100D4000C809C909C60A0319C70A0319C80A031939
:100D5000C90A49084804470446040319B02EB12EB5
:100D6000F42EF401F40AC12E0130F3000310C60D75
:100D7000C70DC80DC90DF30BB62E0130FF007F085B
:100D8000F407C91FC42EC52EB42E49084D02031DF9
:100D9000D32E48084C02031DD32E47084B02031DD7
:100DA000D32E46084A02031CD62ED72EE52E46081F
:100DB000CA024708031C470FCB024808031C480F10
:100DC000CC024908031C490FCD0201300310C90CA5
:100DD000C80CC70CC60CFF3E031DE62E0130F40202
:100DE000031DF32EF42EC52E75080319F82EF92EC7
:100DF000042FCA09CB09CC09CD09CA0A0319CB0AA9
:100E00000319CC0A0319CD0A4D08C9004C08C800C3
:100E10004B08C7004A08C6000800831603130811D0
:100E2000831203130811831603138811831203130B
:100E300088118316031308128312031308128316F2
:100E400003138812831203138812831603130813E3
:100E500083120313081383160313881383120313D7
:100E600088134E3083120313C700EA30C600C60B46
:100E7000372FC70B372F0000831203138813081373
:100E8000881608160A128A15B3260A128A11083023
:100E900083120313C700C930C600C60B4D2FC70B02
:100EA0004D2F0A128A15B3260A128A113130831285
:100EB0000313C600C60B5A2F0A128A15B3260A124C
:100EC0008A118312031388130813881608120A1252
:100ED0008A15B3260A128A1128300A128A11F225BD
:100EE0000A128A1179080A128A11F2250A128A1145
:100EF0007A080A128A11F2250A128A110A128A1530
:100F0000DF260A128A11080083120313C60001307B
:100F1000F4020030031CF503F502740A031D942F3C
:100F2000750A031D942F952FA62FF301F401E22FCC
:100F30000130FF007F08C6070130FF007F08F3077C
:100F40000130F4020030031CF503F502460884006A
:100F5000831300080319AD2FAE2FD02F7308840020
:100F60000A128A110A240A128A11003A0319B92FA7
:100F7000BA2FD02F740875040319BF2FC02FD02F9C
:100F8000730884000A128A110A240A128A11F600D0
:100F900046088400000876060319CF2FD02F982F1B
:100FA000730884000A128A110A240A128A11F600B0
:100FB000460884000008F70076087702F300F40181
:100FC000031CF4030800F6007608F500EB2F01304F
:100FD000FF007F08F607760884000A128A110A24A7
:100FE0000A128A11003A031DF62FF72FE72F750812
:0C0FF0007602F300F401F31BF403080088
:101D3C0042340C34063464008001840A040603190E
:101D4C0000340406A22EF300831203130C1EAF2ED4
:101D5C00B02EAA2E7308990008008312031388155D
:101D6C000D30F300F30BB82E831203138811080007
:101D7C00F50075080A128A11DF230A128A15AC3095
:101D8C000A128A11DF230A128A1508007E088A00BB
:101D9C007F0882000A128A15CC260A128A15800046
:101DAC00840A04087D0603190034FF0A0319FE0A8D
:101DBC00D02E01300A128A11F2250A128A15DE3051
:101DCC00F700E82EE92EF70BE72EEC2EED2E000097
:101DDC007A080A128A11F2250A128A150800F500EF
:101DEC0075088400831300087306031DFE2EFF2E56
:101DFC00012F75080B2F750884000130F5070008BA
:101E0C00031D092F0A2FF62E00300800831603132A
:101E1C0007138717181599011812831203139817B3
:101E2C00831603139816181383120313181618131A
:101E3C00831603138C160B178B17080083120313CE
:101E4C00A601A701F301F4017308283E8400831353
:101E5C0080010130F3070318F40A0030F40774080A
:101E6C00803AFF0080307F02031D3E2F1E3073022C
:101E7C00031C412F422F2A2F0800831203138C1EA0
:101E8C00482F492F5F2F003027021C3003192602E0
:101E9C000318512F522F5F2F2608283E84001A0852
:101EAC00831380000130A6070318A70A0030A70788
:101EBC008C1272088A0071088400700E8300FE0E6A
:101ECC007E0E0900F7017F2F77084607840047082C
:101EDC000318470AFF000A128A1100240A128A15F5
:101EEC000A128A115E250A128A150130FF007F083A
:101EFC00F707770883120313460784004708031873
:101F0C00470AFF000A128A1100240A128A15003AA5
:101F1C00031D912F922F6A2F080083120313C60002
:101F2C004603031D9A2F9B2F9F2F7F30FF007F08A6
:101F3C00F70702304606031DA42FA52FA92FBF308B
:101F4C00FF007F08F70703304606031DAE2FAF2FA7
:101F5C00B32F9330FF007F08F70704304606031DAC
:101F6C00B82FB92FBD2FD330FF007F08F7077708A4
:101F7C000A128A11F2250A128A1508005F340034FD
:101F8C0000340034003400340034003400340034A5
:101F9C000034003400340034003400340034003495
:101FAC000034003400340034003400340034003485
:101FBC0000340034003400345F3400340034003416
:101FCC000034003400340034003400340034003465
:101FDC000034003400340034003400340034003455
:101FEC000034003400340034003400340034003445
:041FFC000034003479
:04400E00D223FF3F7B
:00000001FF
